:100000000C945D000C9485000C9485000C94850084
:100010000C9485000C9485000C9485000C9485004C
:100020000C9485000C9485000C9485000C9485003C
:100030000C9485000C9485000C9485000C9485002C
:100040000C94D9020C9485000C9485000C948500C6
:100050000C9485000C9485000C9485000C9485000C
:100060000C9485000C94850000000008000201003B
:100070000003040700000000000000000000000072
:10008000250028002B0000000000240027002A0083
:10009000040404040404040402020202020203032E
:1000A0000303030301020408102040800102040836
:1000B0001020010204081020F30311241FBECFEF0B
:1000C000D8E0DEBFCDBF11E0A0E0B1E0E2E3F8E0B0
:1000D00002C005900D92A039B107D9F721E0A0E93F
:1000E000B1E001C01D92A13BB207E1F710E0CDE500
:1000F000D0E004C02197FE010E941104CC35D10745
:10010000C9F70E9423030C9417040C94000090E09C
:10011000FC01EC55FF4F249180579F4FFC018491C7
:10012000882399F090E0880F991FFC01EA57FF4F50
:10013000A591B491FC01E458FF4F859194918FB73C
:10014000F894EC91E22BEC938FBF089590E0FC01C2
:10015000E859FF4F2491FC01EC55FF4F3491FC010D
:10016000E057FF4FE491EE23C9F0222339F023300A
:1001700001F1A8F4213019F1223029F1F0E0EE0F5D
:10018000FF1FE458FF4FA591B4918FB7F894EC91FD
:10019000611126C030953E233C938FBF08952730D0
:1001A000A9F02830C9F0243049F7809180008F7D74
:1001B00003C0809180008F7780938000DFCF84B56B
:1001C0008F7784BDDBCF84B58F7DFBCF8091B0006E
:1001D0008F778093B000D2CF8091B0008F7DF9CF20
:1001E0003E2BDACF3FB7F89480919501909196011C
:1001F000A0919701B091980126B5A89B05C02F3F0B
:1002000019F00196A11DB11D3FBFBA2FA92F982F3C
:100210008827BC01CD01620F711D811D911D42E037
:10022000660F771F881F991F4A95D1F708958F92FF
:100230009F92AF92BF92CF92DF92EF92FF924B01CB
:100240005C010E94F2006B017C010E94F2006C19BB
:100250007D098E099F09683E734081059105A8F3C9
:1002600021E0821A9108A108B10888EEC80E83E047
:10027000D81EE11CF11C81149104A104B10429F7DA
:10028000FF90EF90DF90CF90BF90AF909F908F90B6
:100290000895AF92BF92CF92DF92EF92FF920F93A9
:1002A0001F93CF93DF936C017B018B01040F151F0C
:1002B000EB015E01AE18BF08C017D10759F0699174
:1002C000D601ED91FC910190F081E02DC6010995D8
:1002D000892B79F7C501DF91CF911F910F91FF9085
:1002E000EF90DF90CF90BF90AF900895089590E089
:1002F00080E00895FC0101900020E9F73197AF01FB
:10030000481B590BBC0189E991E00C944901CF933A
:10031000DF93EC0160E08E810E94A60061E08E8197
:100320000E94A60060E08E810E94A6008BE891E00A
:100330000197F1F7DF91CF910895CF92DF92EF927D
:10034000FF920F931F93CF93DF936C017C0187E0A3
:10035000E80EF11CD0E0C0E0062F10E0B8010C2E32
:1003600002C0759567950A94E2F76170F701819173
:100370007F010E94A6002196C430D10579F7C601FD
:10038000DF91CF911F910F91FF90EF90DF90CF9071
:100390000C948701CF92DF92EF92FF920F931F93FD
:1003A000CF93DF93EC01F62E642F8C810E94A60080
:1003B0008D818F3F19F060E00E94A6000F2D10E0A4
:1003C0008F8584FF25C06E0187E0C80ED11CF12CFB
:1003D000E12CB8010E2C02C0759567950A94E2F7DE
:1003E0006170F60181916F010E94A600FFEFEF1A84
:1003F000FF0A88E0E816F10461F7CE01DF91CF91A2
:100400001F910F91FF90EF90DF90CF900C94870198
:10041000B80184E0759567958A95E1F7CE010E9451
:100420009D016F2DCE01DF91CF911F910F91FF9014
:10043000EF90DF90CF900C949D0140E0682F89E908
:1004400091E00C94CA01CF93DF93823029F490910C
:10045000A80198609093A8018093AC011092AD011F
:1004600080E48093AE0180E18093AF0180E58093CA
:10047000B00180919D010E94870080919E018F3F75
:1004800011F00E94870080919F010E948700C9E9B6
:10049000D1E09E01295931408091A80184FD0AC014
:1004A00084E090E02196281739073CF48E810E9461
:1004B0008700EFCF88E090E0F5CF8BE39DE00197D8
:1004C000F1F760E080919D010E94A60060E08091BC
:1004D0009F010E94A60080919E018F3F19F060E06D
:1004E0000E94A6008091A80184FD39C063E089E9DB
:1004F00091E00E949D01CBE4D6E4CE010197F1F793
:1005000063E089E991E00E949D012197F1F763E0A2
:1005100089E991E00E949D0183E592E00197F1F75E
:1005200062E089E991E00E949D018091A8018062CA
:100530000E941D0284E08093A9018CE00E941D02AC
:1005400081E00E941D028BE39FE10197F1F782E0B9
:100550008093AA0186E0DF91CF910C941D02806206
:100560000E941D028BE496E40197F1F78091A801A7
:1005700080620E941D0283E592E00197F1F780916D
:10058000A80180620E941D02D0CF9091AC01891712
:1005900010F08FEF890FE82FF0E0E756FE4F8489C7
:1005A00080680C941D0241E00E94CA0181E090E045
:1005B00008951F920F920FB60F9211242F933F931D
:1005C0008F939F93AF93BF938091910190919201EC
:1005D000A0919301B09194013091900123E0230FF9
:1005E0002D3758F50196A11DB11D209390018093E0
:1005F000910190939201A0939301B0939401809103
:10060000950190919601A0919701B0919801019662
:10061000A11DB11D8093950190939601A093970120
:10062000B0939801BF91AF919F918F913F912F917E
:100630000F900FBE0F901F90189526E8230F02967B
:10064000A11DB11DD2CF789484B5826084BD84B5DC
:10065000816084BD85B5826085BD85B5816085BDBD
:1006600080916E00816080936E0010928100809175
:1006700081008260809381008091810081608093FD
:100680008100809180008160809380008091B10022
:1006900084608093B1008091B00081608093B0004D
:1006A00080917A00846080937A0080917A008260E1
:1006B00080937A0080917A00816080937A008091A3
:1006C0007A00806880937A001092C10080E00E94D6
:1006D000870087E00E94870086E00E94870082E012
:1006E0000E9423028CE091E00E947A0181E00E9446
:1006F000C5028AE191E00E947A0160ED77E080E036
:1007000090E00E94170181E00E941D028BE39FE1AF
:100710000197F1F7C0E400E010E0C0937C00809105
:100720007A00806480937A0080917A0086FDFCCF05
:1007300080917800909179008D3221E0920734F514
:1007400080E00E94C5028AE291E00E947A0181E085
:100750000E94C5028BE391E00E947A0161E086E08D
:100760000E94A60060E087E00E94A60060E080E0B2
:100770000E94A6006AEF70E080E090E00E941701FE
:100780000115110551F20E940000C7CF8D52914012
:10079000823C914080F480E00E94C5028CE491E0AC
:1007A0000E947A0181E00E94C5028DE591E00E94DD
:1007B0007A0160E0D4CF80E00E94C5028EE691E02D
:1007C0000E947A0181E00E94C5028FE791E00E94B9
:1007D0007A0160E086E00E94A60061E087E00E9466
:1007E000A60061E0C4CFE9E9F1E01382128284E05F
:1007F00091E09183808381E084838FEF85838FE014
:10080000868380E1878381E1808782E1818783E13C
:1008100082871386148615861686178681E00C94C7
:100820002302EE0FFF1F0590F491E02D0994F89438
:02083000FFCFF8
:1008320000000000D3024901770176015761746517
:1008420072204D6F6E69746F720053797374656DA7
:10085200205374617274696E67004C6576656C3AF8
:10086200204C6F7720202020202000537461746573
:100872003A2046494C4C494E472020004C6576654B
:100882006C3A204D656469756D20202000537461B7
:1008920074653A20535441424C45202020004C6557
:1008A20076656C3A20484947482120202020005391
:1008B200746174653A20445241494E494E472100C1
:00000001FF
